{"abi":[{"type":"function","name":"retrieve","inputs":[],"outputs":[{"name":"","type":"uint256","internalType":"uint256"}],"stateMutability":"view"},{"type":"function","name":"store","inputs":[{"name":"num","type":"uint256","internalType":"uint256"}],"outputs":[],"stateMutability":"nonpayable"}],"bytecode":{"object":"0x6080604052348015600e575f5ffd5b506101298061001c5f395ff3fe6080604052348015600e575f5ffd5b50600436106030575f3560e01c80632e64cec11460345780636057361d14604e575b5f5ffd5b603a6066565b60405160459190608d565b60405180910390f35b606460048036038101906060919060cd565b606e565b005b5f5f54905090565b805f8190555050565b5f819050919050565b6087816077565b82525050565b5f602082019050609e5f8301846080565b92915050565b5f5ffd5b60af816077565b811460b8575f5ffd5b50565b5f8135905060c78160a8565b92915050565b5f6020828403121560df5760de60a4565b5b5f60ea8482850160bb565b9150509291505056fea2646970667358221220210384c656b9318367f6c480e73e2019505ec7a8d975cbfd775e2c01f683bb3964736f6c634300081c0033","linkReferences":{}},"methodIdentifiers":{"retrieve()":"2e64cec1","store(uint256)":"6057361d"},"id":1}